{
  "address": "0x1E595c0C832c1F564b737666ac76933C7dB16aFA",
  "abi": [
    {
      "inputs": [
        {
          "internalType": "address",
          "name": "_allo",
          "type": "address"
        },
        {
          "internalType": "string",
          "name": "_name",
          "type": "string"
        }
      ],
      "stateMutability": "nonpayable",
      "type": "constructor"
    },
    {
      "inputs": [],
      "name": "ALLOCATION_ACTIVE",
      "type": "error"
    },
    {
      "inputs": [],
      "name": "ALLOCATION_NOT_ACTIVE",
      "type": "error"
    },
    {
      "inputs": [],
      "name": "ALLOCATION_NOT_ENDED",
      "type": "error"
    },
    {
      "inputs": [],
      "name": "ALREADY_INITIALIZED",
      "type": "error"
    },
    {
      "inputs": [],
      "name": "AMOUNT_MISMATCH",
      "type": "error"
    },
    {
      "inputs": [],
      "name": "ANCHOR_ERROR",
      "type": "error"
    },
    {
      "inputs": [],
      "name": "ARRAY_MISMATCH",
      "type": "error"
    },
    {
      "inputs": [],
      "name": "INVALID",
      "type": "error"
    },
    {
      "inputs": [],
      "name": "INVALID_ADDRESS",
      "type": "error"
    },
    {
      "inputs": [],
      "name": "INVALID_FEE",
      "type": "error"
    },
    {
      "inputs": [],
      "name": "INVALID_METADATA",
      "type": "error"
    },
    {
      "inputs": [],
      "name": "INVALID_REGISTRATION",
      "type": "error"
    },
    {
      "inputs": [],
      "name": "IS_APPROVED_STRATEGY",
      "type": "error"
    },
    {
      "inputs": [],
      "name": "MAX_REACHED",
      "type": "error"
    },
    {
      "inputs": [],
      "name": "MISMATCH",
      "type": "error"
    },
    {
      "inputs": [],
      "name": "NONCE_NOT_AVAILABLE",
      "type": "error"
    },
    {
      "inputs": [],
      "name": "NOT_APPROVED_STRATEGY",
      "type": "error"
    },
    {
      "inputs": [],
      "name": "NOT_ENOUGH_FUNDS",
      "type": "error"
    },
    {
      "inputs": [],
      "name": "NOT_IMPLEMENTED",
      "type": "error"
    },
    {
      "inputs": [],
      "name": "NOT_INITIALIZED",
      "type": "error"
    },
    {
      "inputs": [],
      "name": "NOT_PENDING_OWNER",
      "type": "error"
    },
    {
      "inputs": [],
      "name": "POOL_ACTIVE",
      "type": "error"
    },
    {
      "inputs": [],
      "name": "POOL_INACTIVE",
      "type": "error"
    },
    {
      "inputs": [],
      "name": "RECIPIENT_ALREADY_ACCEPTED",
      "type": "error"
    },
    {
      "inputs": [
        {
          "internalType": "address",
          "name": "recipientId",
          "type": "address"
        }
      ],
      "name": "RECIPIENT_ERROR",
      "type": "error"
    },
    {
      "inputs": [],
      "name": "RECIPIENT_NOT_ACCEPTED",
      "type": "error"
    },
    {
      "inputs": [],
      "name": "REGISTRATION_ACTIVE",
      "type": "error"
    },
    {
      "inputs": [],
      "name": "REGISTRATION_NOT_ACTIVE",
      "type": "error"
    },
    {
      "inputs": [],
      "name": "UNAUTHORIZED",
      "type": "error"
    },
    {
      "inputs": [],
      "name": "ZERO_ADDRESS",
      "type": "error"
    },
    {
      "anonymous": false,
      "inputs": [
        {
          "indexed": true,
          "internalType": "address",
          "name": "recipientId",
          "type": "address"
        },
        {
          "indexed": false,
          "internalType": "uint256",
          "name": "amount",
          "type": "uint256"
        },
        {
          "indexed": false,
          "internalType": "address",
          "name": "token",
          "type": "address"
        },
        {
          "indexed": false,
          "internalType": "address",
          "name": "sender",
          "type": "address"
        }
      ],
      "name": "Allocated",
      "type": "event"
    },
    {
      "anonymous": false,
      "inputs": [
        {
          "indexed": false,
          "internalType": "uint256",
          "name": "startTime",
          "type": "uint256"
        },
        {
          "indexed": false,
          "internalType": "uint256",
          "name": "endTime",
          "type": "uint256"
        }
      ],
      "name": "AllocationTimeSet",
      "type": "event"
    },
    {
      "anonymous": false,
      "inputs": [
        {
          "indexed": true,
          "internalType": "address",
          "name": "recipientId",
          "type": "address"
        },
        {
          "indexed": false,
          "internalType": "address",
          "name": "recipientAddress",
          "type": "address"
        },
        {
          "indexed": false,
          "internalType": "uint256",
          "name": "amount",
          "type": "uint256"
        },
        {
          "indexed": false,
          "internalType": "address",
          "name": "sender",
          "type": "address"
        }
      ],
      "name": "Distributed",
      "type": "event"
    },
    {
      "anonymous": false,
      "inputs": [
        {
          "indexed": false,
          "internalType": "uint256",
          "name": "poolId",
          "type": "uint256"
        },
        {
          "indexed": false,
          "internalType": "bytes",
          "name": "data",
          "type": "bytes"
        }
      ],
      "name": "Initialized",
      "type": "event"
    },
    {
      "anonymous": false,
      "inputs": [
        {
          "indexed": false,
          "internalType": "bool",
          "name": "active",
          "type": "bool"
        }
      ],
      "name": "PoolActive",
      "type": "event"
    },
    {
      "anonymous": false,
      "inputs": [
        {
          "indexed": true,
          "internalType": "address",
          "name": "recipientId",
          "type": "address"
        },
        {
          "indexed": false,
          "internalType": "bytes",
          "name": "data",
          "type": "bytes"
        },
        {
          "indexed": false,
          "internalType": "address",
          "name": "sender",
          "type": "address"
        }
      ],
      "name": "Registered",
      "type": "event"
    },
    {
      "anonymous": false,
      "inputs": [
        {
          "indexed": false,
          "internalType": "address",
          "name": "recipientId",
          "type": "address"
        },
        {
          "indexed": false,
          "internalType": "uint256",
          "name": "votes",
          "type": "uint256"
        }
      ],
      "name": "Removed",
      "type": "event"
    },
    {
      "inputs": [],
      "name": "NATIVE",
      "outputs": [
        {
          "internalType": "address",
          "name": "",
          "type": "address"
        }
      ],
      "stateMutability": "view",
      "type": "function"
    },
    {
      "inputs": [
        {
          "internalType": "bytes",
          "name": "_data",
          "type": "bytes"
        },
        {
          "internalType": "address",
          "name": "_sender",
          "type": "address"
        }
      ],
      "name": "allocate",
      "outputs": [],
      "stateMutability": "payable",
      "type": "function"
    },
    {
      "inputs": [
        {
          "internalType": "uint256",
          "name": "",
          "type": "uint256"
        },
        {
          "internalType": "uint256",
          "name": "",
          "type": "uint256"
        }
      ],
      "name": "allocationsMade",
      "outputs": [
        {
          "internalType": "uint256",
          "name": "",
          "type": "uint256"
        }
      ],
      "stateMutability": "view",
      "type": "function"
    },
    {
      "inputs": [
        {
          "internalType": "address[]",
          "name": "_recipientIds",
          "type": "address[]"
        },
        {
          "internalType": "bytes",
          "name": "_data",
          "type": "bytes"
        },
        {
          "internalType": "address",
          "name": "_sender",
          "type": "address"
        }
      ],
      "name": "distribute",
      "outputs": [],
      "stateMutability": "nonpayable",
      "type": "function"
    },
    {
      "inputs": [
        {
          "internalType": "uint256",
          "name": "_index",
          "type": "uint256"
        }
      ],
      "name": "getActiveRecipient",
      "outputs": [
        {
          "components": [
            {
              "internalType": "address",
              "name": "recipientAddress",
              "type": "address"
            },
            {
              "components": [
                {
                  "internalType": "uint256",
                  "name": "protocol",
                  "type": "uint256"
                },
                {
                  "internalType": "string",
                  "name": "pointer",
                  "type": "string"
                }
              ],
              "internalType": "struct Metadata",
              "name": "metadata",
              "type": "tuple"
            },
            {
              "internalType": "enum IStrategy.Status",
              "name": "recipientStatus",
              "type": "uint8"
            },
            {
              "internalType": "uint256",
              "name": "totalVotesReceived",
              "type": "uint256"
            },
            {
              "internalType": "uint256",
              "name": "earned",
              "type": "uint256"
            }
          ],
          "internalType": "struct SurvivorStrategy.Recipient",
          "name": "",
          "type": "tuple"
        }
      ],
      "stateMutability": "view",
      "type": "function"
    },
    {
      "inputs": [],
      "name": "getActiveRecipientCount",
      "outputs": [
        {
          "internalType": "uint256",
          "name": "",
          "type": "uint256"
        }
      ],
      "stateMutability": "view",
      "type": "function"
    },
    {
      "inputs": [],
      "name": "getAllo",
      "outputs": [
        {
          "internalType": "contract IAllo",
          "name": "",
          "type": "address"
        }
      ],
      "stateMutability": "view",
      "type": "function"
    },
    {
      "inputs": [
        {
          "internalType": "uint256",
          "name": "_nftId",
          "type": "uint256"
        },
        {
          "internalType": "uint256",
          "name": "_roundNumber",
          "type": "uint256"
        }
      ],
      "name": "getAllocationsMade",
      "outputs": [
        {
          "internalType": "uint256",
          "name": "",
          "type": "uint256"
        }
      ],
      "stateMutability": "view",
      "type": "function"
    },
    {
      "inputs": [
        {
          "internalType": "uint256",
          "name": "_index",
          "type": "uint256"
        }
      ],
      "name": "getInactiveRecipient",
      "outputs": [
        {
          "components": [
            {
              "internalType": "address",
              "name": "recipientAddress",
              "type": "address"
            },
            {
              "components": [
                {
                  "internalType": "uint256",
                  "name": "protocol",
                  "type": "uint256"
                },
                {
                  "internalType": "string",
                  "name": "pointer",
                  "type": "string"
                }
              ],
              "internalType": "struct Metadata",
              "name": "metadata",
              "type": "tuple"
            },
            {
              "internalType": "enum IStrategy.Status",
              "name": "recipientStatus",
              "type": "uint8"
            },
            {
              "internalType": "uint256",
              "name": "totalVotesReceived",
              "type": "uint256"
            },
            {
              "internalType": "uint256",
              "name": "earned",
              "type": "uint256"
            }
          ],
          "internalType": "struct SurvivorStrategy.Recipient",
          "name": "",
          "type": "tuple"
        }
      ],
      "stateMutability": "view",
      "type": "function"
    },
    {
      "inputs": [],
      "name": "getInactiveRecipientCount",
      "outputs": [
        {
          "internalType": "uint256",
          "name": "",
          "type": "uint256"
        }
      ],
      "stateMutability": "view",
      "type": "function"
    },
    {
      "inputs": [
        {
          "internalType": "address[]",
          "name": "_recipientIds",
          "type": "address[]"
        },
        {
          "internalType": "bytes[]",
          "name": "_data",
          "type": "bytes[]"
        }
      ],
      "name": "getPayouts",
      "outputs": [
        {
          "components": [
            {
              "internalType": "address",
              "name": "recipientAddress",
              "type": "address"
            },
            {
              "internalType": "uint256",
              "name": "amount",
              "type": "uint256"
            }
          ],
          "internalType": "struct IStrategy.PayoutSummary[]",
          "name": "",
          "type": "tuple[]"
        }
      ],
      "stateMutability": "view",
      "type": "function"
    },
    {
      "inputs": [],
      "name": "getPoolAmount",
      "outputs": [
        {
          "internalType": "uint256",
          "name": "",
          "type": "uint256"
        }
      ],
      "stateMutability": "view",
      "type": "function"
    },
    {
      "inputs": [],
      "name": "getPoolId",
      "outputs": [
        {
          "internalType": "uint256",
          "name": "",
          "type": "uint256"
        }
      ],
      "stateMutability": "view",
      "type": "function"
    },
    {
      "inputs": [
        {
          "internalType": "address",
          "name": "_recipientId",
          "type": "address"
        }
      ],
      "name": "getRecipient",
      "outputs": [
        {
          "components": [
            {
              "internalType": "address",
              "name": "recipientAddress",
              "type": "address"
            },
            {
              "components": [
                {
                  "internalType": "uint256",
                  "name": "protocol",
                  "type": "uint256"
                },
                {
                  "internalType": "string",
                  "name": "pointer",
                  "type": "string"
                }
              ],
              "internalType": "struct Metadata",
              "name": "metadata",
              "type": "tuple"
            },
            {
              "internalType": "enum IStrategy.Status",
              "name": "recipientStatus",
              "type": "uint8"
            },
            {
              "internalType": "uint256",
              "name": "totalVotesReceived",
              "type": "uint256"
            },
            {
              "internalType": "uint256",
              "name": "earned",
              "type": "uint256"
            }
          ],
          "internalType": "struct SurvivorStrategy.Recipient",
          "name": "",
          "type": "tuple"
        }
      ],
      "stateMutability": "view",
      "type": "function"
    },
    {
      "inputs": [
        {
          "internalType": "address",
          "name": "_recipientId",
          "type": "address"
        }
      ],
      "name": "getRecipientStatus",
      "outputs": [
        {
          "internalType": "enum IStrategy.Status",
          "name": "",
          "type": "uint8"
        }
      ],
      "stateMutability": "view",
      "type": "function"
    },
    {
      "inputs": [],
      "name": "getStrategyId",
      "outputs": [
        {
          "internalType": "bytes32",
          "name": "",
          "type": "bytes32"
        }
      ],
      "stateMutability": "view",
      "type": "function"
    },
    {
      "inputs": [
        {
          "internalType": "uint256",
          "name": "_amount",
          "type": "uint256"
        }
      ],
      "name": "increasePoolAmount",
      "outputs": [],
      "stateMutability": "nonpayable",
      "type": "function"
    },
    {
      "inputs": [
        {
          "internalType": "uint256",
          "name": "_poolId",
          "type": "uint256"
        },
        {
          "internalType": "bytes",
          "name": "_data",
          "type": "bytes"
        }
      ],
      "name": "initialize",
      "outputs": [],
      "stateMutability": "nonpayable",
      "type": "function"
    },
    {
      "inputs": [],
      "name": "isPoolActive",
      "outputs": [
        {
          "internalType": "bool",
          "name": "",
          "type": "bool"
        }
      ],
      "stateMutability": "view",
      "type": "function"
    },
    {
      "inputs": [
        {
          "internalType": "address",
          "name": "_allocator",
          "type": "address"
        }
      ],
      "name": "isValidAllocator",
      "outputs": [
        {
          "internalType": "bool",
          "name": "",
          "type": "bool"
        }
      ],
      "stateMutability": "view",
      "type": "function"
    },
    {
      "inputs": [],
      "name": "maxRecipientsAllowed",
      "outputs": [
        {
          "internalType": "uint256",
          "name": "",
          "type": "uint256"
        }
      ],
      "stateMutability": "view",
      "type": "function"
    },
    {
      "inputs": [],
      "name": "nft",
      "outputs": [
        {
          "internalType": "contract ERC721",
          "name": "",
          "type": "address"
        }
      ],
      "stateMutability": "view",
      "type": "function"
    },
    {
      "inputs": [
        {
          "internalType": "address",
          "name": "",
          "type": "address"
        }
      ],
      "name": "recipients",
      "outputs": [
        {
          "internalType": "address",
          "name": "recipientAddress",
          "type": "address"
        },
        {
          "components": [
            {
              "internalType": "uint256",
              "name": "protocol",
              "type": "uint256"
            },
            {
              "internalType": "string",
              "name": "pointer",
              "type": "string"
            }
          ],
          "internalType": "struct Metadata",
          "name": "metadata",
          "type": "tuple"
        },
        {
          "internalType": "enum IStrategy.Status",
          "name": "recipientStatus",
          "type": "uint8"
        },
        {
          "internalType": "uint256",
          "name": "totalVotesReceived",
          "type": "uint256"
        },
        {
          "internalType": "uint256",
          "name": "earned",
          "type": "uint256"
        }
      ],
      "stateMutability": "view",
      "type": "function"
    },
    {
      "inputs": [],
      "name": "recipientsCounter",
      "outputs": [
        {
          "internalType": "uint256",
          "name": "",
          "type": "uint256"
        }
      ],
      "stateMutability": "view",
      "type": "function"
    },
    {
      "inputs": [
        {
          "internalType": "bytes",
          "name": "_data",
          "type": "bytes"
        },
        {
          "internalType": "address",
          "name": "_sender",
          "type": "address"
        }
      ],
      "name": "registerRecipient",
      "outputs": [
        {
          "internalType": "address",
          "name": "recipientId",
          "type": "address"
        }
      ],
      "stateMutability": "payable",
      "type": "function"
    },
    {
      "inputs": [],
      "name": "roundDuration",
      "outputs": [
        {
          "internalType": "uint64",
          "name": "",
          "type": "uint64"
        }
      ],
      "stateMutability": "view",
      "type": "function"
    },
    {
      "inputs": [],
      "name": "roundNumber",
      "outputs": [
        {
          "internalType": "uint64",
          "name": "",
          "type": "uint64"
        }
      ],
      "stateMutability": "view",
      "type": "function"
    },
    {
      "inputs": [],
      "name": "roundReward",
      "outputs": [
        {
          "internalType": "uint256",
          "name": "",
          "type": "uint256"
        }
      ],
      "stateMutability": "view",
      "type": "function"
    },
    {
      "inputs": [],
      "name": "roundStartTime",
      "outputs": [
        {
          "internalType": "uint64",
          "name": "",
          "type": "uint64"
        }
      ],
      "stateMutability": "view",
      "type": "function"
    },
    {
      "inputs": [],
      "name": "totalAllocations",
      "outputs": [
        {
          "internalType": "uint256",
          "name": "",
          "type": "uint256"
        }
      ],
      "stateMutability": "view",
      "type": "function"
    },
    {
      "stateMutability": "payable",
      "type": "receive"
    }
  ],
  "transactionHash": "0xbf8ef65f0e72061768e41b4cab2d59b3d27c9f2b94ce4515f289bbcae03a9abe",
  "args": [
    "0xB087535DB0df98fC4327136e897A5985E5Cfbd66",
    "SurvivorStrategy"
  ],
  "numDeployments": 2,
  "solcInputHash": "f62f68f1048c78b4680d3c05899273fa",
  "bytecode": "0x60c06040523480156200001157600080fd5b50604051620026db380380620026db8339810160408190526200003491620000ba565b6001600160a01b038216608052604051829082906200005890829060200162000195565b60408051601f19818403018152919052805160209091012060a05250620001ca92505050565b634e487b7160e01b600052604160045260246000fd5b60005b83811015620000b157818101518382015260200162000097565b50506000910152565b60008060408385031215620000ce57600080fd5b82516001600160a01b0381168114620000e657600080fd5b60208401519092506001600160401b03808211156200010457600080fd5b818501915085601f8301126200011957600080fd5b8151818111156200012e576200012e6200007e565b604051601f8201601f19908116603f011681019083821181831017156200015957620001596200007e565b816040528281528860208487010111156200017357600080fd5b6200018683602083016020880162000094565b80955050505050509250929050565b6020815260008251806020840152620001b681604085016020870162000094565b601f01601f19169190910160400192915050565b60805160a0516124d66200020560003960006102da0152600081816102360152818161097b01528181610a9f015261158e01526124d66000f3fe6080604052600436106101d15760003560e01c806395355b3b116100f7578063df868ed311610095578063ef2920fc11610064578063ef2920fc14610594578063f199f56d146105a7578063f5b0dfb7146105bd578063f7cb789a146105dd57600080fd5b8063df868ed3146104fe578063eb11af9314610516578063eb82031214610543578063edd146cc1461057457600080fd5b8063a93d49fe116100d1578063a93d49fe1461047b578063b2b878d01461049b578063bcda201e146104c8578063dd4f8f74146104de57600080fd5b806395355b3b1461041d5780639fae179014610433578063a0cf0aea1461045357600080fd5b806342fda9c71161016f5780634e2786fb1161013e5780634e2786fb146103635780635c560f49146103a257806362812a39146103da57806363b51ac01461040757600080fd5b806342fda9c7146102cb57806347ccca02146102fe5780634ab4ba421461031e5780634d31d0871461033357600080fd5b80631db9ae5b116101ab5780631db9ae5b1461026e5780631e6dc9dc146102835780632bbe0cae146102a357806338fff2d0146102b657600080fd5b80630a6f0ee9146101dd5780630f0e1359146101ff57806315cc481e1461022757600080fd5b366101d857005b600080fd5b3480156101e957600080fd5b506101fd6101f8366004611b0b565b610604565b005b34801561020b57600080fd5b50610214610624565b6040519081526020015b60405180910390f35b34801561023357600080fd5b507f00000000000000000000000000000000000000000000000000000000000000005b6040516001600160a01b03909116815260200161021e565b34801561027a57600080fd5b50610214610635565b34801561028f57600080fd5b5061021461029e366004611b82565b610641565b6102566102b1366004611ba4565b610662565b3480156102c257600080fd5b50600154610214565b3480156102d757600080fd5b507f0000000000000000000000000000000000000000000000000000000000000000610214565b34801561030a57600080fd5b50600954610256906001600160a01b031681565b34801561032a57600080fd5b50600254610214565b34801561033f57600080fd5b5061035361034e366004611bf5565b610685565b604051901515815260200161021e565b34801561036f57600080fd5b50600e5461038a90600160801b90046001600160401b031681565b6040516001600160401b03909116815260200161021e565b3480156103ae57600080fd5b506102146103bd366004611b82565b600860209081526000928352604080842090915290825290205481565b3480156103e657600080fd5b506103fa6103f5366004611bf5565b610690565b60405161021e9190611cc1565b34801561041357600080fd5b50610214600c5481565b34801561042957600080fd5b50610214600b5481565b34801561043f57600080fd5b506103fa61044e366004611d22565b6106a1565b34801561045f57600080fd5b5061025673eeeeeeeeeeeeeeeeeeeeeeeeeeeeeeeeeeeeeeee81565b34801561048757600080fd5b506103fa610496366004611d22565b6106bc565b3480156104a757600080fd5b506104bb6104b6366004611d3b565b6106d2565b60405161021e9190611e0f565b3480156104d457600080fd5b50610214600a5481565b3480156104ea57600080fd5b50600e5461038a906001600160401b031681565b34801561050a57600080fd5b5060005460ff16610353565b34801561052257600080fd5b50610536610531366004611bf5565b6107d0565b60405161021e9190611e67565b34801561054f57600080fd5b5061056361055e366004611bf5565b6107db565b60405161021e959493929190611e75565b34801561058057600080fd5b506101fd61058f366004611ebb565b6108c0565b6101fd6105a2366004611ba4565b610928565b3480156105b357600080fd5b50610214600d5481565b3480156105c957600080fd5b506101fd6105d8366004611d22565b610946565b3480156105e957600080fd5b50600e5461038a90600160401b90046001600160401b031681565b61060c610970565b6106146109bb565b61061f8383836109de565b505050565b60006106306006610bff565b905090565b60006106306004610bff565b60008281526008602090815260408083208484529091529020545b92915050565b600061066c610970565b6106746109bb565b61067e8383610c09565b905061065c565b600061065c82610e59565b610698611926565b61065c82610ed2565b6106a9611926565b61065c6106b7600484611005565b610ed2565b6106c4611926565b61065c6106b7600684611005565b815181516060919081146106f957604051633da4c02b60e11b815260040160405180910390fd5b6000816001600160401b0381111561071357610713611979565b60405190808252806020026020018201604052801561075857816020015b60408051808201909152600080825260208201528152602001906001900390816107315790505b50905060005b828110156107c7576107a286828151811061077b5761077b611f01565b602002602001015186838151811061079557610795611f01565b6020026020010151611018565b8282815181106107b4576107b4611f01565b602090810291909101015260010161075e565b50949350505050565b600061065c8261109c565b6003602090815260009182526040918290208054835180850190945260018201805485526002830180546001600160a01b0390931695939491929184019161082290611f17565b80601f016020809104026020016040519081016040528092919081815260200182805461084e90611f17565b801561089b5780601f106108705761010080835404028352916020019161089b565b820191906000526020600020905b81548152906001019060200180831161087e57829003601f168201915b5050509190925250505060038201546004830154600590930154919260ff9091169185565b6108c8610970565b6000818060200190518101906108de9190611f6d565b90506108ea83826110b1565b7f91efa3d50feccde0d0d202f8ae5c41ca0b2be614cebcb2bd2f4b019396e6568a838360405161091b929190611ff1565b60405180910390a1505050565b610930610970565b6109386109bb565b6109428282611107565b5050565b61094e610970565b80600260008282546109609190612020565b9091555061096d90508181565b50565b336001600160a01b037f000000000000000000000000000000000000000000000000000000000000000016146109b95760405163075fd2b160e01b815260040160405180910390fd5b565b6001546000036109b957604051630f68fe6360e21b815260040160405180910390fd5b6109e6611332565b6109ee611379565b60006109fa6004610bff565b905060005b81811015610bb3576000610a14600483611005565b6001600160a01b03811660009081526003602090815260408083208151928301909152828252929350610a48908490611018565b60208101519091506000819003610a825760405163f4a513b960e01b81526001600160a01b03851660048201526024015b60405180910390fd5b60015460405163068bcd8d60e01b81526000916001600160a01b037f0000000000000000000000000000000000000000000000000000000000000000169163068bcd8d91610ad69160040190815260200190565b600060405180830381865afa158015610af3573d6000803e3d6000fd5b505050506040513d6000823e601f3d908101601f19168201604052610b1b91908101906120dd565b60408101518554919250610b38916001600160a01b03168461152a565b81846005016000828254610b4c9190612020565b90915550508354604080516001600160a01b039283168152602081018590528a8316818301529051918716917fb5b51454adfa840bd593658325a60a50b0216f12eb5d2937efe6cea935675b7d9181900360600190a25050600190930192506109ff915050565b50600e8054600160801b90046001600160401b0316906010610bd483612190565b91906101000a8154816001600160401b0302191690836001600160401b031602179055505050505050565b600061065c825490565b600081610c1581611564565b60008060008087806020019051810190610c2f91906121b6565b929650909450925090506001600160a01b0384161580610c5657506001600160a01b038316155b15610c7f5760405163f4a513b960e01b81526001600160a01b0385166004820152602401610a79565b6001600160a01b03841660009081526003602052604090206002600382015460ff166006811115610cb257610cb2611c89565b14158015610cd157506002836006811115610ccf57610ccf611c89565b145b15610cfd57600b8054906000610ce683612231565b90915550610cf79050600486611616565b50610d80565b6002600382015460ff166006811115610d1857610d18611c89565b148015610d3657506003836006811115610d3457610d34611c89565b145b15610d5c57600b8054906000610d4b8361224a565b90915550610cf7905060048661162b565b60405163f4a513b960e01b81526001600160a01b0386166004820152602401610a79565b600a54600b541115610da557604051631d28b78560e11b815260040160405180910390fd5b80546001600160a01b0319166001600160a01b03851617815581516001820190815560208301518391906002840190610dde90826122af565b50505060038101805484919060ff19166001836006811115610e0257610e02611c89565b0217905550846001600160a01b03167fa197306e3dd5494a61a695381aa809a53b8e377a685e84e404a85d5a8da6cc628a8a604051610e4292919061236e565b60405180910390a2509294505050505b5092915050565b6009546040516370a0823160e01b81526001600160a01b03838116600483015260009283929116906370a0823190602401602060405180830381865afa158015610ea7573d6000803e3d6000fd5b505050506040513d601f19601f82011682018060405250810190610ecb9190612398565b1192915050565b610eda611926565b6001600160a01b03808316600090815260036020908152604091829020825160a081018452815490941684528251808401909352600181018054845260028201805492948685019490939084019190610f3290611f17565b80601f0160208091040260200160405190810160405280929190818152602001828054610f5e90611f17565b8015610fab5780601f10610f8057610100808354040283529160200191610fab565b820191906000526020600020905b815481529060010190602001808311610f8e57829003601f168201915b505050919092525050508152600382015460209091019060ff166006811115610fd657610fd6611c89565b6006811115610fe757610fe7611c89565b81526004820154602082015260059091015460409091015292915050565b60006110118383611640565b9392505050565b60408051808201909152600080825260208201526001600160a01b03831660009081526003602052604081206004810154600c549192909161105b576000611076565b600c548260025461106c91906123b1565b61107691906123c8565b6040805180820190915293546001600160a01b0316845260208401525090949350505050565b60006110a782610ed2565b6040015192915050565b6110ba8261166a565b8051600980546001600160a01b0319166001600160a01b039092169190911790556020810151600a556040810151606082015160808301516110fd9291906116b9565b610942600161173b565b6000808380602001905181019061111e91906123ea565b91509150600161112e6004610bff565b1180156111fb575060016111426004610bff565b61114c9190612418565b6000828152600860209081526040808320600e54600160801b90046001600160401b031684529091529020541015806111fb57506009546040516331a9108f60e11b8152600481018390526001600160a01b03858116921690636352211e90602401602060405180830381865afa1580156111cb573d6000803e3d6000fd5b505050506040513d601f19601f820116820180604052508101906111ef919061242b565b6001600160a01b031614155b156112195760405163075fd2b160e01b815260040160405180910390fd5b6000818152600860209081526040808320600e54600160801b90046001600160401b03168452909152812080549161125083612231565b90915550506001600160a01b03821660009081526003602052604090206002600382015460ff16600681111561128857611288611c89565b146112b15760405163f4a513b960e01b81526001600160a01b0384166004820152602401610a79565b6004810180549060006112c383612231565b9091555050600c80549060006112d883612231565b90915550506040805160018152600060208201526001600160a01b03868116828401529151918516917f463ffc2cf8b1596445c417388ed30e53eb67cf6668cb2be7f0addf8a78c8441b9181900360600190a25050505050565b600e54611351906001600160401b03600160401b820481169116612448565b6001600160401b031642116109b957604051634543ced160e11b815260040160405180910390fd5b60006113856004610bff565b9050600081116113d05760405162461bcd60e51b81526020600482015260166024820152754e4f5f524543495049454e545f544f5f52454d4f564560501b6044820152606401610a79565b6000600019815b8381101561141c5760006113ec600483611005565b905060006113f982610ed2565b9050838160600151101561141257806060015193508194505b50506001016113d7565b506001600160a01b03821661146c5760405162461bcd60e51b81526020600482015260166024820152754e4f5f524543495049454e545f544f5f52454d4f564560501b6044820152606401610a79565b6001600160a01b038216600090815260036020526040902061148f60048461162b565b5061149b600684611616565b506003818101805460ff19169091179055600b80549060006114bc8361224a565b91905055508060040154600c60008282546114d79190612418565b90915550506004810154604080516001600160a01b038616815260208101929092527fbe80a446a00b8794a7d05e8386915bdde937fe8b48da8d16175a5362b4c3f4f8910160405180910390a150505050565b73eeeeeeeeeeeeeeeeeeeeeeeeeeeeeeeeeeeeeeed196001600160a01b038416016115595761061f8282611782565b61061f83838361179e565b6001546040516329e40d4b60e01b815260048101919091526001600160a01b0382811660248301527f000000000000000000000000000000000000000000000000000000000000000016906329e40d4b90604401602060405180830381865afa1580156115d5573d6000803e3d6000fd5b505050506040513d601f19601f820116820180604052508101906115f99190612468565b61096d5760405163075fd2b160e01b815260040160405180910390fd5b6000611011836001600160a01b0384166117e4565b6000611011836001600160a01b038416611833565b600082600001828154811061165757611657611f01565b9060005260206000200154905092915050565b611672610970565b600154156116935760405163439a74c960e01b815260040160405180910390fd5b806000036116b457604051637fcce2a960e01b815260040160405180910390fd5b600155565b42836001600160401b031610806116d757506001600160401b038216155b806116e0575080155b156116fe57604051637fcce2a960e01b815260040160405180910390fd5b600e80546001600160401b03938416600160401b026fffffffffffffffffffffffffffffffff199091169390941692909217929092179055600d55565b6000805460ff19168215159081179091556040519081527fd94c9bc4d43c51d8dc345a016d8e3d994432fac68e72832e4cf3a616bd8efae09060200160405180910390a150565b60008060008084865af16109425763b12d13eb6000526004601cfd5b816014528060345263a9059cbb60601b60005260206000604460106000875af13d1560016000511417166117da576390b8ec186000526004601cfd5b6000603452505050565b600081815260018301602052604081205461182b5750815460018181018455600084815260208082209093018490558454848252828601909352604090209190915561065c565b50600061065c565b6000818152600183016020526040812054801561191c576000611857600183612418565b855490915060009061186b90600190612418565b90508181146118d057600086600001828154811061188b5761188b611f01565b90600052602060002001549050808760000184815481106118ae576118ae611f01565b6000918252602080832090910192909255918252600188019052604090208390555b85548690806118e1576118e161248a565b60019003818190600052602060002001600090559055856001016000868152602001908152602001600020600090556001935050505061065c565b600091505061065c565b6040518060a0016040528060006001600160a01b0316815260200161195e604051806040016040528060008152602001606081525090565b81526020016000815260200160008152602001600081525090565b634e487b7160e01b600052604160045260246000fd5b60405160c081016001600160401b03811182821017156119b1576119b1611979565b60405290565b604051601f8201601f191681016001600160401b03811182821017156119df576119df611979565b604052919050565b60006001600160401b03821115611a0057611a00611979565b5060051b60200190565b6001600160a01b038116811461096d57600080fd5b600082601f830112611a3057600080fd5b81356020611a45611a40836119e7565b6119b7565b82815260059290921b84018101918181019086841115611a6457600080fd5b8286015b84811015611a88578035611a7b81611a0a565b8352918301918301611a68565b509695505050505050565b60006001600160401b03821115611aac57611aac611979565b50601f01601f191660200190565b600082601f830112611acb57600080fd5b8135611ad9611a4082611a93565b818152846020838601011115611aee57600080fd5b816020850160208301376000918101602001919091529392505050565b600080600060608486031215611b2057600080fd5b83356001600160401b0380821115611b3757600080fd5b611b4387838801611a1f565b94506020860135915080821115611b5957600080fd5b50611b6686828701611aba565b9250506040840135611b7781611a0a565b809150509250925092565b60008060408385031215611b9557600080fd5b50508035926020909101359150565b60008060408385031215611bb757600080fd5b82356001600160401b03811115611bcd57600080fd5b611bd985828601611aba565b9250506020830135611bea81611a0a565b809150509250929050565b600060208284031215611c0757600080fd5b813561101181611a0a565b60005b83811015611c2d578181015183820152602001611c15565b50506000910152565b60008151808452611c4e816020860160208601611c12565b601f01601f19169290920160200192915050565b805182526000602082015160406020850152611c816040850182611c36565b949350505050565b634e487b7160e01b600052602160045260246000fd5b60078110611cbd57634e487b7160e01b600052602160045260246000fd5b9052565b602080825282516001600160a01b03168282015282015160a06040830152600090611cef60c0840182611c62565b90506040840151611d036060850182611c9f565b5060608401516080840152608084015160a08401528091505092915050565b600060208284031215611d3457600080fd5b5035919050565b60008060408385031215611d4e57600080fd5b82356001600160401b0380821115611d6557600080fd5b611d7186838701611a1f565b9350602091508185013581811115611d8857600080fd5b8501601f81018713611d9957600080fd5b8035611da7611a40826119e7565b81815260059190911b82018401908481019089831115611dc657600080fd5b8584015b83811015611dfe57803586811115611de25760008081fd5b611df08c8983890101611aba565b845250918601918601611dca565b508096505050505050509250929050565b602080825282518282018190526000919060409081850190868401855b82811015611e5a57815180516001600160a01b03168552860151868501529284019290850190600101611e2c565b5091979650505050505050565b6020810161065c8284611c9f565b6001600160a01b038616815260a060208201819052600090611e9990830187611c62565b9050611ea86040830186611c9f565b6060820193909352608001529392505050565b60008060408385031215611ece57600080fd5b8235915060208301356001600160401b03811115611eeb57600080fd5b611ef785828601611aba565b9150509250929050565b634e487b7160e01b600052603260045260246000fd5b600181811c90821680611f2b57607f821691505b602082108103611f4b57634e487b7160e01b600052602260045260246000fd5b50919050565b80516001600160401b0381168114611f6857600080fd5b919050565b600060a08284031215611f7f57600080fd5b60405160a081018181106001600160401b0382111715611fa157611fa1611979565b6040528251611faf81611a0a565b815260208381015190820152611fc760408401611f51565b6040820152611fd860608401611f51565b6060820152608083015160808201528091505092915050565b828152604060208201526000611c816040830184611c36565b634e487b7160e01b600052601160045260246000fd5b8082018082111561065c5761065c61200a565b60006040828403121561204557600080fd5b604051604081016001600160401b03828210818311171561206857612068611979565b8160405282935084518352602085015191508082111561208757600080fd5b508301601f8101851361209957600080fd5b80516120a7611a4082611a93565b8181528660208385010111156120bc57600080fd5b6120cd826020830160208601611c12565b8060208501525050505092915050565b6000602082840312156120ef57600080fd5b81516001600160401b038082111561210657600080fd5b9083019060c0828603121561211a57600080fd5b61212261198f565b82518152602083015161213481611a0a565b6020820152604083015161214781611a0a565b604082015260608301518281111561215e57600080fd5b61216a87828601612033565b6060830152506080830151608082015260a083015160a082015280935050505092915050565b60006001600160401b038083168181036121ac576121ac61200a565b6001019392505050565b600080600080608085870312156121cc57600080fd5b84516121d781611a0a565b60208601519094506121e881611a0a565b6040860151909350600781106121fd57600080fd5b60608601519092506001600160401b0381111561221957600080fd5b61222587828801612033565b91505092959194509250565b6000600182016122435761224361200a565b5060010190565b6000816122595761225961200a565b506000190190565b601f82111561061f57600081815260208120601f850160051c810160208610156122885750805b601f850160051c820191505b818110156122a757828155600101612294565b505050505050565b81516001600160401b038111156122c8576122c8611979565b6122dc816122d68454611f17565b84612261565b602080601f83116001811461231157600084156122f95750858301515b600019600386901b1c1916600185901b1785556122a7565b600085815260208120601f198616915b8281101561234057888601518255948401946001909101908401612321565b508582101561235e5787850151600019600388901b60f8161c191681555b5050505050600190811b01905550565b6040815260006123816040830185611c36565b905060018060a01b03831660208301529392505050565b6000602082840312156123aa57600080fd5b5051919050565b808202811582820484141761065c5761065c61200a565b6000826123e557634e487b7160e01b600052601260045260246000fd5b500490565b600080604083850312156123fd57600080fd5b825161240881611a0a565b6020939093015192949293505050565b8181038181111561065c5761065c61200a565b60006020828403121561243d57600080fd5b815161101181611a0a565b6001600160401b03818116838216019080821115610e5257610e5261200a565b60006020828403121561247a57600080fd5b8151801515811461101157600080fd5b634e487b7160e01b600052603160045260246000fdfea2646970667358221220f867319314d4bd78f25c3a16606f53ab523a692dd6d8f7e69758fff43371a60264736f6c63430008130033",
  "devdoc": {
    "author": "allo-team",
    "errors": {
      "ANCHOR_ERROR()": [
        {
          "details": "Thrown if the anchor creation fails"
        }
      ],
      "NONCE_NOT_AVAILABLE()": [
        {
          "details": "Thrown when the nonce passed has been used or not available"
        }
      ],
      "NOT_PENDING_OWNER()": [
        {
          "details": "Thrown when the 'msg.sender' is not the pending owner on ownership transfer"
        }
      ]
    },
    "events": {
      "Allocated(address,uint256,address,address)": {
        "params": {
          "amount": "The amount allocated",
          "recipientId": "The ID of the recipient",
          "token": "The token allocated"
        }
      },
      "Distributed(address,address,uint256,address)": {
        "params": {
          "amount": "The amount distributed",
          "recipientAddress": "The recipient",
          "recipientId": "The ID of the recipient",
          "sender": "The sender"
        }
      },
      "Initialized(uint256,bytes)": {
        "params": {
          "data": "The data passed to the 'initialize' function",
          "poolId": "The ID of the pool"
        }
      },
      "PoolActive(bool)": {
        "params": {
          "active": "The status of the pool"
        }
      },
      "Registered(address,bytes,address)": {
        "params": {
          "data": "The data passed to the 'registerRecipient' function",
          "recipientId": "The ID of the recipient",
          "sender": "The sender"
        }
      }
    },
    "kind": "dev",
    "methods": {
      "allocate(bytes,address)": {
        "details": "The encoded '_data' will be determined by the strategy implementation. Only 'Allo' contract can      call this when it is initialized.",
        "params": {
          "_data": "The data to use to allocate to the recipient",
          "_sender": "The address of the sender"
        }
      },
      "distribute(address[],bytes,address)": {
        "details": "The encoded '_data' will be determined by the strategy implementation. Only 'Allo' contract can      call this when it is initialized.",
        "params": {
          "_data": "The data to use to distribute to the recipients",
          "_recipientIds": "The IDs of the recipients",
          "_sender": "The address of the sender"
        }
      },
      "getActiveRecipient(uint256)": {
        "params": {
          "_index": "The index of the recipient"
        }
      },
      "getActiveRecipientCount()": {
        "returns": {
          "_0": "The total number of recipients"
        }
      },
      "getAllo()": {
        "returns": {
          "_0": "The Allo contract"
        }
      },
      "getAllocationsMade(uint256,uint256)": {
        "params": {
          "_nftId": "The nft id",
          "_roundNumber": "The round number"
        },
        "returns": {
          "_0": "The number of votes"
        }
      },
      "getInactiveRecipientCount()": {
        "returns": {
          "_0": "The total number of recipients"
        }
      },
      "getPayouts(address[],bytes[])": {
        "details": "The encoded '_data' will be determined by the strategy implementation.",
        "params": {
          "_data": "The data to use to get the payout summary for the recipients",
          "_recipientIds": "The IDs of the recipients"
        },
        "returns": {
          "_0": "The payout summary for the recipients"
        }
      },
      "getPoolAmount()": {
        "returns": {
          "_0": "The balance of the pool"
        }
      },
      "getPoolId()": {
        "returns": {
          "_0": "The ID of the pool"
        }
      },
      "getRecipient(address)": {
        "params": {
          "_recipientId": "Id of the recipient"
        }
      },
      "getRecipientStatus(address)": {
        "params": {
          "_recipientId": "The ID of the recipient"
        },
        "returns": {
          "_0": "The status of the recipient"
        }
      },
      "getStrategyId()": {
        "returns": {
          "_0": "The ID of the strategy"
        }
      },
      "increasePoolAmount(uint256)": {
        "details": "Increases the 'poolAmount' by '_amount'. Only 'Allo' contract can call this.",
        "params": {
          "_amount": "The amount to increase the pool by"
        }
      },
      "isPoolActive()": {
        "returns": {
          "_0": "'true' if the pool is active, otherwise 'false'"
        }
      },
      "isValidAllocator(address)": {
        "details": "How the allocator is determined is up to the strategy implementation.",
        "params": {
          "_allocator": "The address to check if it is a valid allocator for the strategy."
        },
        "returns": {
          "_0": "'true' if the address is a valid allocator, 'false' otherwise"
        }
      },
      "registerRecipient(bytes,address)": {
        "details": "Registers a recipient and returns the ID of the recipient. The encoded '_data' will be determined by the      strategy implementation. Only 'Allo' contract can call this when it is initialized.",
        "params": {
          "_data": "The data to use to register the recipient",
          "_sender": "The address of the sender"
        },
        "returns": {
          "recipientId": "The recipientId"
        }
      }
    },
    "title": "Proportional Payout Strategy",
    "version": 1
  },
  "userdoc": {
    "errors": {
      "ALLOCATION_ACTIVE()": [
        {
          "notice": "Thrown when the allocation is active."
        }
      ],
      "ALLOCATION_NOT_ACTIVE()": [
        {
          "notice": "Thrown when the allocation is not active."
        }
      ],
      "ALLOCATION_NOT_ENDED()": [
        {
          "notice": "Thrown when the allocation is not ended."
        }
      ],
      "ALREADY_INITIALIZED()": [
        {
          "notice": "Thrown when data is already intialized"
        }
      ],
      "AMOUNT_MISMATCH()": [
        {
          "notice": "Thrown when the amount of tokens sent does not match the amount of tokens expected"
        }
      ],
      "ARRAY_MISMATCH()": [
        {
          "notice": "Thrown when two arrays length are not equal"
        }
      ],
      "INVALID()": [
        {
          "notice": "Thrown as a general error when input / data is invalid"
        }
      ],
      "INVALID_ADDRESS()": [
        {
          "notice": "Thrown when an invalid address is used"
        }
      ],
      "INVALID_FEE()": [
        {
          "notice": "Thrown when the fee is below 1e18 which is the fee percentage denominator"
        }
      ],
      "INVALID_METADATA()": [
        {
          "notice": "Thrown when the metadata is invalid."
        }
      ],
      "INVALID_REGISTRATION()": [
        {
          "notice": "Thrown when the registration is invalid."
        }
      ],
      "IS_APPROVED_STRATEGY()": [
        {
          "notice": "Thrown when the strategy is approved and should be cloned"
        }
      ],
      "MAX_REACHED()": [
        {
          "notice": "===================== ======= Errors ====== ====================="
        }
      ],
      "MISMATCH()": [
        {
          "notice": "Thrown when mismatch in decoding data"
        }
      ],
      "NOT_APPROVED_STRATEGY()": [
        {
          "notice": "Thrown when the strategy is not approved"
        }
      ],
      "NOT_ENOUGH_FUNDS()": [
        {
          "notice": "Thrown when not enough funds are available"
        }
      ],
      "NOT_IMPLEMENTED()": [
        {
          "notice": "Thrown when the function is not implemented"
        }
      ],
      "NOT_INITIALIZED()": [
        {
          "notice": "Thrown when data is yet to be initialized"
        }
      ],
      "POOL_ACTIVE()": [
        {
          "notice": "Thrown when a pool is already active"
        }
      ],
      "POOL_INACTIVE()": [
        {
          "notice": "Thrown when a pool is inactive"
        }
      ],
      "RECIPIENT_ALREADY_ACCEPTED()": [
        {
          "notice": "Thrown when recipient is already accepted."
        }
      ],
      "RECIPIENT_ERROR(address)": [
        {
          "notice": "Thrown when there is an error in recipient."
        }
      ],
      "RECIPIENT_NOT_ACCEPTED()": [
        {
          "notice": "Thrown when the recipient is not accepted."
        }
      ],
      "REGISTRATION_ACTIVE()": [
        {
          "notice": "Thrown when registration is active."
        }
      ],
      "REGISTRATION_NOT_ACTIVE()": [
        {
          "notice": "Thrown when registration is not active."
        }
      ],
      "UNAUTHORIZED()": [
        {
          "notice": "Thrown when user is not authorized"
        }
      ],
      "ZERO_ADDRESS()": [
        {
          "notice": "Thrown when address is the zero address"
        }
      ]
    },
    "events": {
      "Allocated(address,uint256,address,address)": {
        "notice": "Emitted when a recipient is allocated to."
      },
      "AllocationTimeSet(uint256,uint256)": {
        "notice": "===================== ======= Events ====== ====================="
      },
      "Distributed(address,address,uint256,address)": {
        "notice": "Emitted when tokens are distributed."
      },
      "Initialized(uint256,bytes)": {
        "notice": "Emitted when strategy is initialized."
      },
      "PoolActive(bool)": {
        "notice": "Emitted when pool is set to active status."
      },
      "Registered(address,bytes,address)": {
        "notice": "Emitted when a recipient is registered."
      }
    },
    "kind": "user",
    "methods": {
      "NATIVE()": {
        "notice": "Address of the native token"
      },
      "allocate(bytes,address)": {
        "notice": "Allocates to a recipient."
      },
      "allocationsMade(uint256,uint256)": {
        "notice": "nftId => roundNumber => allocations made"
      },
      "distribute(address[],bytes,address)": {
        "notice": "Distributes funds (tokens) to recipients."
      },
      "getActiveRecipient(uint256)": {
        "notice": "Get the recipient by their index in the active recipients list"
      },
      "getActiveRecipientCount()": {
        "notice": "Get the total number of active recipients"
      },
      "getAllo()": {
        "notice": "Getter for the 'Allo' contract."
      },
      "getAllocationsMade(uint256,uint256)": {
        "notice": "Get the allocators votes for a round"
      },
      "getInactiveRecipientCount()": {
        "notice": "Get the total number of inactive recipients"
      },
      "getPayouts(address[],bytes[])": {
        "notice": "Gets the payout summary for recipients."
      },
      "getPoolAmount()": {
        "notice": "Getter for the 'poolAmount'."
      },
      "getPoolId()": {
        "notice": "Getter for the 'poolId'."
      },
      "getRecipient(address)": {
        "notice": "Get the recipient"
      },
      "getRecipientStatus(address)": {
        "notice": "Getter for the status of a recipient."
      },
      "getStrategyId()": {
        "notice": "Getter for the 'strategyId'."
      },
      "increasePoolAmount(uint256)": {
        "notice": "Increases the pool amount."
      },
      "initialize(uint256,bytes)": {
        "notice": "=============================== ========= Initialize ========== ==============================="
      },
      "isPoolActive()": {
        "notice": "Getter for whether or not the pool is active."
      },
      "isValidAllocator(address)": {
        "notice": "Checks if the '_allocator' is a valid allocator."
      },
      "maxRecipientsAllowed()": {
        "notice": "The maximum approved recipients"
      },
      "nft()": {
        "notice": "The NFT to give allocators"
      },
      "recipients(address)": {
        "notice": "recipientId => Recipient"
      },
      "recipientsCounter()": {
        "notice": "The total number of recipients"
      },
      "registerRecipient(bytes,address)": {
        "notice": "Registers a recipient."
      },
      "roundDuration()": {
        "notice": "The duration of each allocation round"
      },
      "roundNumber()": {
        "notice": "The current round number (0 == first round)"
      },
      "roundReward()": {
        "notice": "The reward for the round"
      },
      "roundStartTime()": {
        "notice": "The start time of the first allocation round"
      },
      "totalAllocations()": {
        "notice": "The total number of votes cast by allocators"
      }
    },
    "notice": "This strategy allows the allocator to allocate votes to recipients",
    "version": 1
  },
  "storageLayout": {
    "storage": [
      {
        "astId": 4160,
        "contract": "contracts/SurvivorStrategy.sol:SurvivorStrategy",
        "label": "poolActive",
        "offset": 0,
        "slot": "0",
        "type": "t_bool"
      },
      {
        "astId": 4162,
        "contract": "contracts/SurvivorStrategy.sol:SurvivorStrategy",
        "label": "poolId",
        "offset": 0,
        "slot": "1",
        "type": "t_uint256"
      },
      {
        "astId": 4164,
        "contract": "contracts/SurvivorStrategy.sol:SurvivorStrategy",
        "label": "poolAmount",
        "offset": 0,
        "slot": "2",
        "type": "t_uint256"
      },
      {
        "astId": 4832,
        "contract": "contracts/SurvivorStrategy.sol:SurvivorStrategy",
        "label": "recipients",
        "offset": 0,
        "slot": "3",
        "type": "t_mapping(t_address,t_struct(Recipient)4810_storage)"
      },
      {
        "astId": 4836,
        "contract": "contracts/SurvivorStrategy.sol:SurvivorStrategy",
        "label": "activeRecipients",
        "offset": 0,
        "slot": "4",
        "type": "t_struct(AddressSet)2859_storage"
      },
      {
        "astId": 4840,
        "contract": "contracts/SurvivorStrategy.sol:SurvivorStrategy",
        "label": "inactiveRecipients",
        "offset": 0,
        "slot": "6",
        "type": "t_struct(AddressSet)2859_storage"
      },
      {
        "astId": 4847,
        "contract": "contracts/SurvivorStrategy.sol:SurvivorStrategy",
        "label": "allocationsMade",
        "offset": 0,
        "slot": "8",
        "type": "t_mapping(t_uint256,t_mapping(t_uint256,t_uint256))"
      },
      {
        "astId": 4851,
        "contract": "contracts/SurvivorStrategy.sol:SurvivorStrategy",
        "label": "nft",
        "offset": 0,
        "slot": "9",
        "type": "t_contract(ERC721)944"
      },
      {
        "astId": 4854,
        "contract": "contracts/SurvivorStrategy.sol:SurvivorStrategy",
        "label": "maxRecipientsAllowed",
        "offset": 0,
        "slot": "10",
        "type": "t_uint256"
      },
      {
        "astId": 4857,
        "contract": "contracts/SurvivorStrategy.sol:SurvivorStrategy",
        "label": "recipientsCounter",
        "offset": 0,
        "slot": "11",
        "type": "t_uint256"
      },
      {
        "astId": 4860,
        "contract": "contracts/SurvivorStrategy.sol:SurvivorStrategy",
        "label": "totalAllocations",
        "offset": 0,
        "slot": "12",
        "type": "t_uint256"
      },
      {
        "astId": 4863,
        "contract": "contracts/SurvivorStrategy.sol:SurvivorStrategy",
        "label": "roundReward",
        "offset": 0,
        "slot": "13",
        "type": "t_uint256"
      },
      {
        "astId": 4866,
        "contract": "contracts/SurvivorStrategy.sol:SurvivorStrategy",
        "label": "roundStartTime",
        "offset": 0,
        "slot": "14",
        "type": "t_uint64"
      },
      {
        "astId": 4869,
        "contract": "contracts/SurvivorStrategy.sol:SurvivorStrategy",
        "label": "roundDuration",
        "offset": 8,
        "slot": "14",
        "type": "t_uint64"
      },
      {
        "astId": 4872,
        "contract": "contracts/SurvivorStrategy.sol:SurvivorStrategy",
        "label": "roundNumber",
        "offset": 16,
        "slot": "14",
        "type": "t_uint64"
      }
    ],
    "types": {
      "t_address": {
        "encoding": "inplace",
        "label": "address",
        "numberOfBytes": "20"
      },
      "t_array(t_bytes32)dyn_storage": {
        "base": "t_bytes32",
        "encoding": "dynamic_array",
        "label": "bytes32[]",
        "numberOfBytes": "32"
      },
      "t_bool": {
        "encoding": "inplace",
        "label": "bool",
        "numberOfBytes": "1"
      },
      "t_bytes32": {
        "encoding": "inplace",
        "label": "bytes32",
        "numberOfBytes": "32"
      },
      "t_contract(ERC721)944": {
        "encoding": "inplace",
        "label": "contract ERC721",
        "numberOfBytes": "20"
      },
      "t_enum(Status)5842": {
        "encoding": "inplace",
        "label": "enum IStrategy.Status",
        "numberOfBytes": "1"
      },
      "t_mapping(t_address,t_struct(Recipient)4810_storage)": {
        "encoding": "mapping",
        "key": "t_address",
        "label": "mapping(address => struct SurvivorStrategy.Recipient)",
        "numberOfBytes": "32",
        "value": "t_struct(Recipient)4810_storage"
      },
      "t_mapping(t_bytes32,t_uint256)": {
        "encoding": "mapping",
        "key": "t_bytes32",
        "label": "mapping(bytes32 => uint256)",
        "numberOfBytes": "32",
        "value": "t_uint256"
      },
      "t_mapping(t_uint256,t_mapping(t_uint256,t_uint256))": {
        "encoding": "mapping",
        "key": "t_uint256",
        "label": "mapping(uint256 => mapping(uint256 => uint256))",
        "numberOfBytes": "32",
        "value": "t_mapping(t_uint256,t_uint256)"
      },
      "t_mapping(t_uint256,t_uint256)": {
        "encoding": "mapping",
        "key": "t_uint256",
        "label": "mapping(uint256 => uint256)",
        "numberOfBytes": "32",
        "value": "t_uint256"
      },
      "t_string_storage": {
        "encoding": "bytes",
        "label": "string",
        "numberOfBytes": "32"
      },
      "t_struct(AddressSet)2859_storage": {
        "encoding": "inplace",
        "label": "struct EnumerableSet.AddressSet",
        "members": [
          {
            "astId": 2858,
            "contract": "contracts/SurvivorStrategy.sol:SurvivorStrategy",
            "label": "_inner",
            "offset": 0,
            "slot": "0",
            "type": "t_struct(Set)2544_storage"
          }
        ],
        "numberOfBytes": "64"
      },
      "t_struct(Metadata)6621_storage": {
        "encoding": "inplace",
        "label": "struct Metadata",
        "members": [
          {
            "astId": 6617,
            "contract": "contracts/SurvivorStrategy.sol:SurvivorStrategy",
            "label": "protocol",
            "offset": 0,
            "slot": "0",
            "type": "t_uint256"
          },
          {
            "astId": 6620,
            "contract": "contracts/SurvivorStrategy.sol:SurvivorStrategy",
            "label": "pointer",
            "offset": 0,
            "slot": "1",
            "type": "t_string_storage"
          }
        ],
        "numberOfBytes": "64"
      },
      "t_struct(Recipient)4810_storage": {
        "encoding": "inplace",
        "label": "struct SurvivorStrategy.Recipient",
        "members": [
          {
            "astId": 4797,
            "contract": "contracts/SurvivorStrategy.sol:SurvivorStrategy",
            "label": "recipientAddress",
            "offset": 0,
            "slot": "0",
            "type": "t_address"
          },
          {
            "astId": 4800,
            "contract": "contracts/SurvivorStrategy.sol:SurvivorStrategy",
            "label": "metadata",
            "offset": 0,
            "slot": "1",
            "type": "t_struct(Metadata)6621_storage"
          },
          {
            "astId": 4803,
            "contract": "contracts/SurvivorStrategy.sol:SurvivorStrategy",
            "label": "recipientStatus",
            "offset": 0,
            "slot": "3",
            "type": "t_enum(Status)5842"
          },
          {
            "astId": 4806,
            "contract": "contracts/SurvivorStrategy.sol:SurvivorStrategy",
            "label": "totalVotesReceived",
            "offset": 0,
            "slot": "4",
            "type": "t_uint256"
          },
          {
            "astId": 4809,
            "contract": "contracts/SurvivorStrategy.sol:SurvivorStrategy",
            "label": "earned",
            "offset": 0,
            "slot": "5",
            "type": "t_uint256"
          }
        ],
        "numberOfBytes": "192"
      },
      "t_struct(Set)2544_storage": {
        "encoding": "inplace",
        "label": "struct EnumerableSet.Set",
        "members": [
          {
            "astId": 2539,
            "contract": "contracts/SurvivorStrategy.sol:SurvivorStrategy",
            "label": "_values",
            "offset": 0,
            "slot": "0",
            "type": "t_array(t_bytes32)dyn_storage"
          },
          {
            "astId": 2543,
            "contract": "contracts/SurvivorStrategy.sol:SurvivorStrategy",
            "label": "_indexes",
            "offset": 0,
            "slot": "1",
            "type": "t_mapping(t_bytes32,t_uint256)"
          }
        ],
        "numberOfBytes": "64"
      },
      "t_uint256": {
        "encoding": "inplace",
        "label": "uint256",
        "numberOfBytes": "32"
      },
      "t_uint64": {
        "encoding": "inplace",
        "label": "uint64",
        "numberOfBytes": "8"
      }
    }
  }
}